:020000040800F2
:10000000002000202D3C0008793C0008793C0008C5
:10001000793C0008793C0008793C000800000000A9
:10002000000000000000000000000000F11D0008BA
:10003000793C000800000000051F0008411F00086F
:10004000793C0008793C0008793C0008793C0008BC
:10005000793C0008793C000831410008793C0008EF
:10006000793C0008793C0008793C0008793C00089C
:10007000793C0008793C0008793C0008793C00088C
:10008000793C0008793C0008793C00080000000039
:10009000000000000000000000000000793C0008A3
:1000A000793C0008793C0008793C0008793C00085C
:1000B000793C0008793C0008793C0008793C00084C
:1000C000793C0008793C0008793C0008793C00083C
:1000D000793C0008E9410008793C0008793C0008B7
:1000E000793C0008793C0008793C000800000000D9
:1000F0000000000000000000000000000000000000
:1001000000000000000000000000000000000000EF
:100110000000000000000000C1060008093C0008C3
:1001200000000000000000000000000000000000CF
:1001300000000000000000000000000000000000BF
:1001400000000000000000000000000000000000AF
:10015000000000000000000000000000000000009F
:10016000000000000000000000000000000000008F
:10017000000000000000000000000000000000007F
:10018000000000000000000000000000000000006F
:10019000000000000000000000000000000000005F
:1001A000000000000000000000000000000000004F
:1001B000000000000000000000000000000000003F
:1001C0000000000000000000000000005FF808F1DF
:1001D00080B584B000AF786039603B689BB27868C6
:1001E000194600F043F80346FB73FB7B002B01D05C
:1001F000FB7B09E03B689BB24FF0EE0079681A4642
:1002000000F080F84FF00003184607F11007BD46D4
:1002100080BD00BF80B586B000AFF860B9607A607D
:100220007B689BB2B868194600F020F80346FB755E
:10023000FB7D002B01D0FB7D13E07B689BB24FF070
:10024000AA00B9681A4600F05DF87B689BB2B868EE
:10025000194600F0B9F803461A46FB681A604FF0D9
:100260000003184607F11807BD4680BD80B584B06D
:1002700000AF78600B467B807B887868194600F079
:10028000E5F97B887868194600F0C8F90346002B29
:1002900002D14FF002032FE07B887868194600F006
:1002A000EDF97B887868194600F0AAF94FF4F070F0
:1002B00000F08CFA7B887868194600F093F97B8807
:1002C0007868194600F0C2F94FF03C0000F07EFA61
:1002D0007B887868194600F0A1F90346002B03D10A
:1002E0004FF00003FB6002E04FF00103FB604FF4AE
:1002F000AF7000F06BFAFB68184607F11007BD46B7
:1003000080BD00BF80B584B000AF3960134602469F
:10031000FA71BB804FF00003FB7313E0FB7B4FF0DF
:10032000010202FA03F3DAB2FB791340DBB2DAB26C
:10033000BB88104639681A4600F00CF8FB7B03F1C5
:100340000103FB73FB7B082BE8D107F11007BD46C7
:1003500080BD00BF80B582B000AF39601346024651
:10036000FA71BB80BB883868194600F087F9BB88F2
:100370003868194600F044F9FB79002B0DD14FF095
:100380003C0000F023FABB883868194600F02AF9CF
:100390004FF00A0000F01AFA0CE04FF00A0000F0EB
:1003A00015FABB883868194600F01CF94FF03C007C
:1003B00000F00CFABB883868194600F047F907F1DD
:1003C0000807BD4680BD00BF80B584B000AF78602F
:1003D0000B467B804FF00003FB734FF00003BB73B1
:1003E00015E07B887868194600F01EF80346002B5C
:1003F00009D0BB7B4FF0010202FA03F3DAB2FB7BB8
:100400001343DBB2FB73BB7B03F10103BB73BB7B09
:10041000082BE6D14FF03C0000F0D8F9FB7B1846E2
:1004200007F11007BD4680BD80B584B000AF78608D
:100430000B467B807B887868194600F01FF97B8823
:100440007868194600F0DCF84FF0020000F0BEF9C1
:100450007B887868194600F0F9F84FF00A0000F040
:10046000B5F97B887868194600F0D8F80346002B68
:1004700003D04FF00103FB7302E04FF00003FB7366
:100480004FF03C0000F0A2F9FB7B184607F1100783
:10049000BD4680BD80B582B000AF78600B46FB7072
:1004A00000BF7B681B889BB203F08003002BF8D051
:1004B000FB789BB27868194601F084FA07F10807C7
:1004C000BD4680BD80B584B000AFF860B96013460A
:1004D000FB7109E0BB681B78BA6802F10102BA60DF
:1004E000F8681946FFF7D6FFBB681B78002BF1D1DF
:1004F000FB79002B04D0F8684FF00A01FFF7CAFF20
:1005000007F11007BD4680BD80B586B000AF7860AA
:10051000396007F108034FF000021A6003F1040389
:100520004FF000021A6003F104034FF000021A803A
:1005300003F1020307F108037B614FF00003FB7432
:100540003B68002B45D02EE0396846F26763C6F25F
:10055000666383FB01234FEAA3024FEAE173D21AD9
:1005600013464FEA83039B184FEA4303CA1A44F623
:100570000413C0F600039A5C7B691A707B6903F16F
:1005800001037B613A6846F26763C6F2666383FBE8
:1005900002134FEAA3014FEAE273CB1A3B60FB7CE4
:1005A00003F10103FB743B68002BCDD10DE0FB7C14
:1005B00003F1FF33FB74FB7C07F11802D31813F827
:1005C000103C78681946FFF765FFFB7C002BEED1E5
:1005D00004E078684FF03001FFF75CFF07F118077F
:1005E000BD4680BD80B483B000AF78600B467B8091
:1005F0007A887B681A6107F10C07BD4680BC70479A
:1006000080B483B000AF78600B467B807A887B68CB
:100610005A6107F10C07BD4680BC704780B483B0B7
:1006200000AF78600B467B807B689A687B881340BC
:10063000002B02D04FF0010301E04FF000031846F9
:1006400007F10C07BD4680BC704700BF80B584B081
:1006500000AF78600B467B807B88BB814FF0030343
:10066000BB734FF00403FB7307F10C037868194662
:1006700000F0CEFA07F11007BD4680BD80B584B00A
:1006800000AF78600B467B807B88BB814FF0030313
:10069000BB734FF01003FB7307F10C037868194626
:1006A00000F0B6FA07F11007BD4680BD80B500AF77
:1006B0004FF010004FF0010100F0AEFE80BD00BF12
:1006C00080B500AF4FF48050C4F200004FF001013C
:1006D00000F0EEFF0346002B1ED04FF48050C4F212
:1006E00000004FF0010101F013F84FF48050C4F204
:1006F00000004FF0000100F0ADFF4FF48050C4F255
:1007000000004FF0000100F0C5FF40F22003C2F2EC
:1007100000034FF001021A7080BD00BF80B483B0A7
:1007200000AF0346FB804FF48053C4F2000340F255
:100730001C02C2F2000211684DF68362C4F21B3241
:10074000A2FB01024FEA924292B211464FEA4111D6
:10075000891A4FEA81018A184FEAC20292B202F165
:10076000FF3292B21A854FF48053C4F20003FA8824
:100770009A854FF48053C4F200034FF48052C4F2C0
:100780000002928A92B242F0010292B29A824FF42F
:100790008053C4F200034FF48052C4F20002128866
:1007A00092B242F0090292B21A8000BF4FF4805315
:1007B000C4F200031B889BB203F00103002BF5D1A8
:1007C00007F10C07BD4680BC704700BF80B483B002
:1007D00000AF0346FB804FF48053C4F2000340F2A5
:1007E0001C02C2F2000211684DF68362C4F21B3291
:1007F000A2FB01024FEA924292B202F1FF3292B2A0
:100800001A854FF48053C4F20003FA889A854FF496
:100810008053C4F200034FF48052C4F20002928A63
:1008200092B242F0010292B29A824FF48053C4F223
:1008300000034FF48052C4F20002128892B242F0D8
:10084000090292B21A8000BF4FF48053C4F2000331
:100850001B889BB203F00103002BF5D107F10C07B5
:10086000BD4680BC704700BF80B500AF4FF0C050A0
:100870004FF0010100F0D0FD4FF0010000F0F8FA58
:100880004FF0010000F062FC00BF4FF0410000F0AB
:10089000EDFD0346002BF8D04FF4807000F086FC8D
:1008A0004FF0010000F098FC00F0B6FE00F0A4FE4E
:1008B00000F0A2FE47F6FF7000F080FE00F09CFE04
:1008C00080BD00BF80B500AF00F040FE024645F29B
:1008D0007F13C0F201039A4205D14FF0000000F0EF
:1008E00051FE00F089FE00F031FE0346184680BD3F
:1008F00080B483B000AF78607A684BF2C533C9F238
:10090000A213A3FB02134FEAD323184607F10C07E7
:10091000BD4680BC704700BF80B483B000AF786034
:1009200079684BF2C533C9F2A213A3FB01234FEA46
:10093000D3224FF4616303FB02F3CA1A48F689031A
:10094000C8F68803A3FB02134FEA5313184607F1B6
:100950000C07BD4680BC704780B483B000AF7860A0
:100960007A684BF2C533C9F2A213A3FB02134FEA14
:10097000D3214FF4616303FB01F3D11A48F68903D5
:10098000C8F68803A3FB01234FEA531213464FEA2C
:1009900003139B1A4FEA8303CA1A1346184607F13A
:1009A0000C07BD4680BC704780B483B000AF786050
:1009B0004FF46D43CEF200037A6842F0BF6242F416
:1009C0000032DA6007F10C07BD4680BC704700BFFB
:1009D00080B487B000AF78604FF000037B614FF0C8
:1009E00000033B614FF00F03FB607B68DB78002B5B
:1009F00047D04FF46D43CEF20003DB686FEA030388
:100A000003F4E0634FEA13237B617B69C3F10403C2
:100A10003B617B69FA6822FA03F3FB607B685B78D1
:100A20001A463B6902FA03F37B617B689B781A469E
:100A3000FB6813407A6913437B617B694FEA0313B8
:100A40007B614FF46143CEF200037A68127811465D
:100A50007A69D2B25B1883F800234FF46143CEF277
:100A600000037A6812784FEA5212D2B27968097894
:100A700001F01F014FF0010000FA01F143F82210CC
:100A800014E04FF46143CEF200037A6812784FEA23
:100A90005212D2B27968097801F01F014FF00100BB
:100AA00000FA01F102F1200243F8221007F11C07BD
:100AB000BD4680BC704700BF80B485B000AF786091
:100AC0004FF00003FB604FF48063C4F20103FB604E
:100AD0007B689B79002B78D04FF48063C4F20103CC
:100AE0004FF48062C4F2010211687A6812686FEAFA
:100AF00002020A401A604FF48063C4F201034FF40B
:100B00008062C4F2010251687A6812686FEA0202D8
:100B10000A405A607B681B79FA68D318FB60FB684F
:100B2000FA6811687A6812680A431A604FF48063A1
:100B3000C4F201034FF48062C4F2010291687A6842
:100B400012686FEA02020A409A604FF48063C4F2AE
:100B500001034FF48062C4F20102D1687A6812681E
:100B60006FEA02020A40DA607B685B79102B1AD1C7
:100B70004FF48063C4F201034FF48062C4F20102B7
:100B800091687A6812680A439A604FF48063C4F2ED
:100B900001034FF48062C4F20102D1687A681268DE
:100BA0000A43DA601FE04FF48063C4F20103FB6084
:100BB0007B685B79FA68D318FB60FB68FA68116898
:100BC0007A6812680A431A600DE07B681B79FA683C
:100BD000D318FB60FB68FA6811687A6812686FEADC
:100BE00002020A401A6007F11407BD4680BC704734
:100BF00080B483B000AF78604FF48063C4F2010327
:100C00007A685A6107F10C07BD4680BC704700BF87
:100C100080B489B000AF786039604FF00003FB61A9
:100C20004FF000033B614FF00003BB614FF0000346
:100C3000FB604FF000037B614FF00003BB603B683B
:100C4000DB7803F00F03FB613B68DB7803F01003F4
:100C5000002B04D03B689B78FA691343FB613B6827
:100C60001B88DBB2002B4ED07B681B687B614FF08A
:100C70000003BB6141E0BB694FF0010202FA03F3DC
:100C8000FB603B681B881A46FB6813403B613A696E
:100C9000FB689A422DD1BB694FEA8303FB60FB6876
:100CA0004FF00F0202FA03F3BB60BB686FEA030365
:100CB0007A6913407B61FB68FA6902FA03F37A6987
:100CC00013437B613B68DB78282B07D1BB694FF06E
:100CD000010202FA03F27B685A610AE03B68DB78A2
:100CE000482B06D1BB694FF0010202FA03F27B6880
:100CF0001A61BB6903F10103BB61BB69072BBAD958
:100D00007B687A691A603B681B88FF2B53D97B6824
:100D10005B687B614FF00003BB6146E0BB6903F198
:100D200008034FF0010202FA03F3FB603B681B88E3
:100D30001A46FB6813403B613A69FB689A4230D11E
:100D4000BB694FEA8303FB60FB684FF00F0202FAB6
:100D500003F3BB60BB686FEA03037A6913407B61EE
:100D6000FB68FA6902FA03F37A6913437B613B6813
:100D7000DB78282B08D1BB6903F108034FF001028F
:100D800002FA03F27B685A613B68DB78482B08D192
:100D9000BB6903F108034FF0010202FA03F27B681A
:100DA0001A61BB6903F10103BB61BB69072BB5D9AC
:100DB0007B687A695A6007F12407BD4680BC70479A
:100DC00090B484B000AF02460B46FA71BB714FF08D
:100DD0000003FB60BB7903F003034FEA83034FF08A
:100DE0000F0202FA03F3FB604FF00003C4F20103A9
:100DF000BA794FEA9202D2B210464FF00002C4F222
:100E00000102B9794FEA9101C9B201F1020152F828
:100E10002110FA686FEA0202114000F1020243F861
:100E200022104FF00003C4F20103BA794FEA920294
:100E3000D2B210464FF00002C4F20102B9794FEA73
:100E40009101C9B201F1020152F82110FC79BA797D
:100E500002F003024FEA820204FA02F2114300F1A7
:100E6000020243F8221007F11007BD4690BC7047FC
:100E700080B483B000AF0346FB714FF02003C4F28F
:100E80000E23FA791A6007F10C07BD4680BC704743
:100E900080B400AF4FF48053C4F202034FF4805289
:100EA000C4F20202126842F001021A604FF480524A
:100EB000C4F202024FF48053C4F2020359684FF0A7
:100EC0000003CFF6FF030B4053604FF48053C4F28E
:100ED00002034FF48052C4F20202126822F08472BC
:100EE00022F480321A604FF48053C4F202034FF4AC
:100EF0008052C4F20202126822F480221A604FF477
:100F00008053C4F202034FF48052C4F202025268CA
:100F100022F4FE025A604FF48053C4F202034FF4ED
:100F20001F029A604FF48053C4F202034FF0000294
:100F3000DA62BD4680BC704780B483B000AF786091
:100F40004FF48053C4F202034FF48052C4F2020201
:100F5000126822F480321A604FF48053C4F2020304
:100F60004FF48052C4F20202126822F480221A6006
:100F70007B68B3F5803F03D0B3F5802F0DD019E027
:100F80004FF48053C4F202034FF48052C4F20202C1
:100F9000126842F480321A600DE04FF48053C4F2BC
:100FA00002034FF48052C4F20202126842F4A022FB
:100FB0001A6000E000BF07F10C07BD4680BC704717
:100FC00080B485B000AF786039604FF00003FB60FB
:100FD0004FF48053C4F202035B68FB60FB6823F4A8
:100FE0007413FB607A683B681343FA681343FB6031
:100FF0004FF48053C4F20203FA685A6007F11407F1
:10100000BD4680BC704700BF80B483B000AF0346CC
:10101000FB714FF06003C4F24223FA791A6007F1C2
:101020000C07BD4680BC704780B485B000AF7860C7
:101030004FF00003FB604FF48053C4F202035B687F
:10104000FB60FB6823F00303FB60FA687B681343D3
:10105000FB604FF48053C4F20203FA685A6007F150
:101060001407BD4680BC704780B400AF4FF4805376
:10107000C4F202035B68DBB203F00C03DBB2184678
:10108000BD4680BC704700BF80B485B000AF7860BB
:101090004FF00003FB604FF48053C4F202035B681F
:1010A000FB60FB6823F0F003FB60FA687B68134386
:1010B000FB604FF48053C4F20203FA685A6007F1F0
:1010C0001407BD4680BC704780B485B000AF78601F
:1010D0004FF00003FB604FF48053C4F202035B68DF
:1010E000FB60FB6823F4E063FB60FA687B681343F2
:1010F000FB604FF48053C4F20203FA685A6007F1B0
:101100001407BD4680BC704780B485B000AF7860DE
:101110004FF00003FB604FF48053C4F202035B689E
:10112000FB60FB6823F46053FB607B684FEAC303FA
:10113000FA681343FB604FF48053C4F20203FA6869
:101140005A6007F11407BD4680BC704780B483B075
:1011500000AF0346FB714FF48153C4F202034FF01A
:1011600000021A704FF48153C4F202034FF00002E0
:101170001A70FB79012B02D0042B08D00FE04FF43A
:101180008153C4F202034FF001021A7008E04FF4D9
:101190008153C4F202034FF005021A7000E000BF51
:1011A00007F10C07BD4680BC704700BF80B483B018
:1011B00000AF78604FF48053C4F202034FF48052C2
:1011C000C4F20202116A7A680A431A6207F10C0734
:1011D000BD4680BC704700BF80B483B000AF0346FB
:1011E000FB7140F23C43C4F24223FA791A6007F1E2
:1011F0000C07BD4680BC704780B489B000AF7860F2
:101200004FF00003FB614FF00003BB614FF00003A0
:101210007B614FF000033B614FF00003FB604FF434
:101220008053C4F202035B6803F00C03FB61FB69AB
:10123000042B0AD0082B0FD0002B47D17A684FF42B
:101240009053C0F27A03136047E07A684FF49053EA
:10125000C0F27A03136040E04FF48053C4F20203FB
:101260005B6803F47013BB614FF48053C4F2020354
:101270005B6803F480337B61BB694FEA934303F1FE
:101280000203BB617B69002B09D1BA694FF410637B
:10129000C0F23D0303FB02F27B681A601DE04FF4CD
:1012A0008053C4F20203DB6A03F00F0303F101036E
:1012B000FB604FF49053C0F27A03FA68B3FBF2F389
:1012C000BA6902FB03F27B681A6006E07A684FF4A1
:1012D0009053C0F27A03136000BF4FF48053C4F2FE
:1012E00002035B6803F0F003FB61FB694FEA131331
:1012F000FB6140F20003C2F20003FA699B181B78FD
:10130000DBB23B617B681A683B6922FA03F27B68B7
:101310005A604FF48053C4F202035B6803F4E06345
:10132000FB61FB694FEA1323FB6140F20003C2F249
:101330000003FA699B181B78DBB23B617B685A6833
:101340003B6922FA03F27B689A604FF48053C4F23F
:1013500002035B6803F46053FB61FB694FEAD3232C
:10136000FB6140F20003C2F20003FA699B181B788C
:10137000DBB23B617B685A683B6922FA03F27B6807
:10138000DA604FF48053C4F202035B6803F4404315
:10139000FB61FB694FEA9333FB6140F21003C2F239
:1013A0000003FA699B181B78DBB23B617B68DA6843
:1013B0003B69B2FBF3F27B681A6107F12407BD4673
:1013C00080BC704780B483B000AF78600B46FB7080
:1013D000FB78002B0CD04FF48053C4F202034FF47F
:1013E0008052C4F2020291697A680A439A610DE060
:1013F0004FF48053C4F202034FF48052C4F202024D
:1014000091697A686FEA02020A409A6107F10C0753
:10141000BD4680BC704700BF80B483B000AF786029
:101420000B46FB70FB78002B0CD04FF48053C4F2BA
:1014300002034FF48052C4F20202D1697A680A436F
:10144000DA610DE04FF48053C4F202034FF480528E
:10145000C4F20202D1697A686FEA02020A40DA61D4
:1014600007F10C07BD4680BC704700BF80B487B051
:1014700000AF0346FB714FF00003FB604FF0000329
:101480007B614FF00003FB74FB794FEA5313DBB22F
:10149000FB60FB68012B06D14FF48053C4F20203BA
:1014A0001B687B610FE0FB68022B06D14FF4805371
:1014B000C4F202031B6A7B6105E04FF48053C4F25F
:1014C00002035B6A7B61FB7903F01F03FB60FB682F
:1014D0007A6922FA03F303F00103002B03D04FF0E3
:1014E0000103FB7402E04FF00003FB74FB7C184621
:1014F00007F11C07BD4680BC704700BF80B400AF39
:101500004FF42053C4F200034FF42052C4F20002FF
:10151000928892B242F0100292B29A80BD4680BC8C
:10152000704700BF80B400AF4FF42053C4F20003F3
:101530004FF42052C4F20002928892B222F01002BC
:1015400092B29A80BD4680BC704700BF80B483B021
:1015500000AF4FF00003FB804FF42053C4F20003B0
:101560009B8BFB804FF42053C4F200031B8B9BB278
:101570004FEA0342FB881343184607F10C07BD46A8
:1015800080BC704780B582B000AF7860FFF7B6FFCF
:101590004FF42053C4F200037A684FEA124292B229
:1015A0001A834FF42053C4F200037A6892B29A83EC
:1015B000FFF7B8FF07F10807BD4680BD80B582B0D0
:1015C00000AF7860FFF79AFF4FF42053C4F2000396
:1015D0007A6802F470224FEA124292B21A814FF4F2
:1015E0002053C4F200037A6892B29A81FFF79AFFFF
:1015F00007F10807BD4680BD80B400AF00BF4FF4BF
:101600002053C4F200039B889BB203F02003002BFD
:10161000F5D0BD4680BC704780B400AF4FF4205376
:10162000C4F200034FF42052C4F20002928892B236
:1016300022F0080292B29A8000BF4FF42053C4F205
:1016400000039B889BB203F00803002BF5D0BD4636
:1016500080BC704780B483B000AF78600B46FB70ED
:10166000FB78002B08D07B681B889BB243F00103FA
:101670009AB27B681A8007E07B681B889BB223F0D4
:1016800001039AB27B681A8007F10C07BD4680BC43
:10169000704700BF80B483B000AF78600B467B809A
:1016A0007B687A889A8407F10C07BD4680BC704736
:1016B00080B485B000AF78600B467B804FF00003AC
:1016C000FB734FF00003BB814FF000037B817B680D
:1016D0001B8A9AB27B881340BB817B689B899AB234
:1016E0007B8813407B81BB89002B06D07B89002B34
:1016F00003D04FF00103FB7302E04FF00003FB73D4
:10170000FB7B184607F11407BD4680BC704700BF3D
:1017100080B483B000AF78600B467B807B886FEA33
:1017200003039AB27B681A8207F10C07BD4680BC9E
:10173000704700BF80B58CB000AF786039604FF063
:101740000003FB624FF00003BB624FF000037B62BB
:101750004FF000033B624FF00003FB617B68FB61CD
:101760007B681B8A9BB2FB62FA6A4CF6FF731340DC
:10177000FB623B68DB88FA6A1343FB62FB6A9AB23E
:101780007B681A827B689B899BB2FB62FA6A4EF681
:10179000F3131340FB623B689A883B681B89134331
:1017A0009AB23B685B8913439BB2FA6A1343FB62AC
:1017B000FB6A9AB27B689A817B689B8A9BB2FB62C8
:1017C000FA6A4FF6FF431340FB623B689B89FA6A53
:1017D0001343FB62FB6A9AB27B689A8207F10803A3
:1017E0001846FFF709FDFA694FF46053C4F201038C
:1017F0009A4202D17B69BB6201E03B69BB627B68B4
:101800009B899BB29BB21BB2002B0FDABA6A1346BC
:101810004FEA83039B184FEA83029A183B681B68C0
:101820004FEA4303B2FBF3F37B620EE0BA6A13465E
:101830004FEA83039B184FEA83029A183B681B68A0
:101840004FEA8303B2FBF3F37B627A6A48F21F53D9
:10185000C5F2EB13A3FB02134FEA53134FEA031332
:10186000FB62FB6A4FEA13134FF0640202FB03F3BF
:101870007A6AD31A3B627B689B899BB29BB21BB28C
:10188000002B12DA3B6A4FEAC30303F1320248F23B
:101890001F53C5F2EB13A3FB02134FEA531303F0DC
:1018A0000703FA6A1343FB6211E03B6A4FEA031332
:1018B00003F1320248F21F53C5F2EB13A3FB0213EC
:1018C0004FEA531303F00F03FA6A1343FB62FB6AF8
:1018D0009AB27B681A8107F13007BD4680BD00BF10
:1018E00080B483B000AF78600B46FB70FB78002BB0
:1018F00008D07B689B899BB243F400539AB27B6803
:101900009A8107E07B689B899BB223F400539AB2CB
:101910007B689A8107F10C07BD4680BC704700BF09
:1019200080B487B000AF786013460A467A807B7037
:101930004FF000033B614FF00003FB604FF00003EA
:10194000BB604FF000037B617B687B617B88DBB20F
:101950004FEA5313DBB23B617B8803F01F03FB604C
:10196000FB684FF0010202FA03F3BB603B69012BF5
:1019700004D17B6903F10C037B610BE03B69022B13
:1019800004D17B6903F110037B6103E07B6903F100
:1019900014037B617B78002B06D07B697A69116820
:1019A000BA680A431A6007E07B697A691168BA6805
:1019B0006FEA02020A401A6007F11C07BD4680BCAC
:1019C000704700BF80B483B000AF78600B467B8067
:1019D0007B884FEAC3534FEAD3539AB27B689A800D
:1019E00007F10C07BD4680BC704700BF80B483B0D0
:1019F00000AF78607B689B889BB24FEAC3534FEA85
:101A0000D3539BB2184607F10C07BD4680BC704704
:101A100080B485B000AF78600B467B804FF0000348
:101A2000FB737B681B889AB27B8813409BB2002BA8
:101A300003D04FF00103FB7302E04FF00003FB7390
:101A4000FB7B184607F11407BD4680BC704700BFFA
:101A500080B487B000AF78600B467B804FF0000306
:101A6000FB604FF000037B614FF00003BB604FF061
:101A70000003FB747B88DBB24FEA5313DBB2BB601D
:101A80007B8803F01F037B617B694FF0010202FA40
:101A900003F37B61BB68012B06D17B689B899BB2FA
:101AA0007A6913407B610FE0BB68022B06D17B682B
:101AB0001B8A9BB27A6913407B6105E07B689B8A35
:101AC0009BB27A6913407B617B884FEA13239BB2F8
:101AD000FB60FB684FF0010202FA03F3FB607B68D6
:101AE0001B889BB2FA681340FB607B69002B06D011
:101AF000FB68002B03D04FF00103FB7402E04FF0B2
:101B00000003FB74FB7C184607F11C07BD4680BC34
:101B1000704700BF80B584B000AF78604FF000031D
:101B2000FB607B6803F00703002B05D07B6823F084
:101B3000070303F108037B6000F052FF41F62843DE
:101B4000C2F200031B68002B08D1234B23F00703CC
:101B50001A4641F62843C2F200031A6041F62443B4
:101B6000C2F200031A687B68D21841F6F7339A4232
:101B700025D841F62443C2F200031A687B68D218C4
:101B800041F62443C2F200031B689A4217D941F67A
:101B90002843C2F200031A6841F62443C2F200034C
:101BA0001B68D318FB6041F62443C2F200031A6895
:101BB0007B68D21841F62443C2F200031A6000F099
:101BC00021FFFB68002B01D102F030FCFB681846B6
:101BD00007F11007BD4680BD2C00002080B582B003
:101BE00000AF78607B68002B02D000F07DF9FEE743
:101BF00007F10807BD4680BD80B400AF41F624431D
:101C0000C2F200031B68C3F5DF5303F11803184643
:101C1000BD4680BC704700BF80B483B000AF786021
:101C20007B6803F108027B685A607B684FF0FF32E3
:101C30009A607B6803F108027B68DA607B6803F1D5
:101C400008027B681A617B684FF000021A6007F196
:101C50000C07BD4680BC704780B483B000AF78608D
:101C60007B684FF000021A6107F10C07BD4680BC8B
:101C7000704700BF80B485B000AF786039607B6882
:101C80005B68FB60FB685A683B685A607B685A680F
:101C90003B689A60FB685B683A689A60FB683A68E0
:101CA0005A607B683A685A603B687A681A617B6858
:101CB0001B6803F101027B681A6007F11407BD4637
:101CC00080BC704780B485B000AF786039603B68F5
:101CD0001B68BB60BB68B3F1FF3F03D17B681B6926
:101CE000FB600DE07B6803F10803FB6002E0FB682A
:101CF0005B68FB60FB685B681A68BB689A42F6D950
:101D0000FB685A683B685A603B685B683A689A604F
:101D10003B68FA689A60FB683A685A603B687A6880
:101D20001A617B681B6803F101027B681A6007F186
:101D30001407BD4680BC704780B485B000AF7860A2
:101D40007B685B687A6892689A607B689B687A684F
:101D500052685A607B681B69FB60FB685A687B6845
:101D60009A4203D17B689A68FB685A607B684FF09F
:101D700000021A61FB681B6803F1FF32FB681A60FE
:101D8000FB681B68184607F11407BD4680BC704706
:101D900080B485B000AFF860B9607A60FB68A3F1E9
:101DA0000403FB60FB684FF080721A60FB68A3F1CC
:101DB0000403FB60BA68FB681A60FB68A3F10403C4
:101DC000FB60FB684FF000021A60FB68A3F114038C
:101DD000FB607A68FB681A60FB68A3F12003FB6074
:101DE000FB68184607F11407BD4680BC704700BF6A
:101DF000064B19680868B0E8F00F80F309884FF0C7
:101E0000000080F311884EF00D0E70472C1C00204E
:101E100003480068006880F3088862B600DF00BFEE
:101E200008ED00E080B500AF4EF62053CEF200037F
:101E30004EF62052CEF20002126842F470021A608E
:101E40004EF62053CEF200034EF62052CEF20002A0
:101E5000126842F070421A6000F084F840F21403F5
:101E6000C2F200034FF000021A60FFF7D1FF4FF0FB
:101E70000003184680BD00BF80B400AF4EF6045387
:101E8000CEF200034FF080521A60BD4680BC70470E
:101E900080B500AF00F028F840F21403C2F200034E
:101EA0001B6803F1010240F21403C2F200031A603E
:101EB00080BD00BF80B500AF40F21403C2F2000342
:101EC0001B6803F1FF3240F21403C2F200031A60F0
:101ED00040F21403C2F200031B68002B03D14FF041
:101EE000000000F00BF880BDEFF311804FF05001BF
:101EF00081F3118870474FF00003184680F3118872
:101F0000704700BFEFF309800C4B1A6820E9F00F0F
:101F100010602DE908404FF0500080F3118800F068
:101F20001DFF4FF0000080F31188BDE808401968DC
:101F30000868B0E8F00F80F3098870472C1C002077
:101F400080B500AF4EF60453CEF200034FF080523E
:101F50001A60FFF7C9FF00F01BFE4FF00000FFF70B
:101F6000CDFF80BD80B400AF4EF21403CEF200036B
:101F70004BF67F321A604EF21003CEF200034FF0A0
:101F800007021A60BD4680BC704700BF80B584B0B0
:101F900000AF786039607B68FB60FB68002B02D182
:101FA000FFF7A2FFFEE7FFF773FFFB681A68FB6805
:101FB000DB6BF968096C01FB03F3D218FB685A600C
:101FC000FB684FF000029A63FB681A68FB689A602E
:101FD000FB681A68FB68DB6B03F1FF33F968096C77
:101FE00001FB03F3D218FB68DA60FB684FF0FF32A5
:101FF0005A64FB684FF0FF329A643B68002B0FD1A4
:10200000FB681B69002B17D0FB6803F1100318460F
:1020100000F0C0FF0346012B0ED1FFF72DFF0BE0B0
:10202000FB6803F110031846FFF7F6FDFB6803F1A8
:1020300024031846FFF7F0FDFFF73CFF4FF00103C4
:10204000184607F11007BD4680BD00BF80B588B0B7
:1020500000AFF860B9601346FB714FF00003FB61FD
:10206000FB68002B29D04FF04C00FFF753FDB861FF
:10207000BB69002B21D0FB68BA6802FB03F303F1B4
:1020800001037B617869FFF745FD0246BB691A6071
:10209000BB691B68002B0DD0BB69FA68DA63BB69AA
:1020A000BA681A64B8694FF00101FFF76FFFBB69A6
:1020B000FB6102E0B869FFF791FDFB69002B02D1DB
:1020C000FFF712FFFEE7FB69184607F12007BD4640
:1020D00080BD00BF80B588B000AFF860B9607A609D
:1020E0003B604FF00003FB61FB68BB61BB69002BE9
:1020F00002D1FFF7F9FEFEE7BB68002B03D1BB69F5
:102100001B6C002B02D14FF0010301E04FF00003E4
:10211000002B03D1FFF7E8FEFEE700BFFFF7B8FE94
:10212000BB699A6BBB69DB6B9A4218D2B869B96814
:102130003A6800F0B1F9BB695B6A002B0AD0BB6951
:1021400003F12403184600F025FF0346012B01D1BB
:10215000FFF792FEFFF7AEFE4FF001035DE07B68F4
:10216000002B04D1FFF7A6FE4FF0000355E0FB69FA
:10217000002B07D107F11003184600F073FF4FF052
:102180000103FB61FFF796FE00F02AFCFFF780FEDB
:10219000BB695B6CB3F1FF3F03D1BB694FF0000239
:1021A0005A64BB699B6CB3F1FF3F03D1BB694FF02D
:1021B00000029A64FFF77EFE07F1100207F10403A4
:1021C0001046194600F06AFF0346002B1ED1B8697D
:1021D00000F056FA0346002B12D0BB6903F110023F
:1021E0007B681046194600F063FEB86900F0DEF91E
:1021F00000F008FC0346002B8FD1FFF73DFE8CE773
:10220000B86900F0D3F900F0FDFB86E7B86900F08B
:10221000CDF900F0F7FB4FF00003184607F1200757
:10222000BD4680BD80B588B000AFF860B9607A6007
:102230003B60FB68BB61BB69002B02D1FFF754FE1A
:10224000FEE7BB68002B03D1BB691B6C002B02D1DE
:102250004FF0010301E04FF00003002B02D1FFF724
:1022600043FEFEE7FFF740FE7861BB699A6BBB69EE
:10227000DB6B9A4228D2B869B9683A6800F00CF969
:10228000BB699B6CB3F1FF3F14D1BB695B6A002B48
:1022900016D0BB6903F12403184600F07BFE034609
:1022A000002B0DD07B68002B0AD07B684FF0010219
:1022B0001A6005E0BB699B6C03F10102BB699A647B
:1022C0004FF00103FB6102E04FF00003FB6178690E
:1022D000FFF714FEFB69184607F12007BD4680BDD5
:1022E00080B58AB000AFF860B9607A603B604FF0AB
:1022F00000037B62FB683B623B6A002B02D1FFF765
:10230000F3FDFEE7BB68002B03D13B6A1B6C002B7F
:1023100002D14FF0010301E04FF00003002B03D185
:10232000FFF7E2FDFEE700BFFFF7B2FD3B6A9B6BE4
:10233000002B3FD03B6ADB68FB61386AB96800F06C
:102340000DF93B68002B1ED13B6A9B6B03F1FF32FA
:102350003B6A9A633B6A1B68002B04D101F084F846
:1023600002463B6A5A603B6A1B69002B1DD03B6AE0
:1023700003F11003184600F00DFE0346012B14D1A3
:10238000FFF77AFD11E03B6AFA69DA603B6A5B6A43
:10239000002B0AD03B6A03F12403184600F0FAFD33
:1023A0000346002B01D0FFF767FDFFF783FD4FF0D9
:1023B00001036BE07B68002B04D1FFF77BFD4FF03E
:1023C000000363E07B6A002B07D107F11403184672
:1023D00000F048FE4FF001037B62FFF76BFD00F059
:1023E000FFFAFFF755FD3B6A5B6CB3F1FF3F03D18A
:1023F0003B6A4FF000025A643B6A9B6CB3F1FF3FAB
:1024000003D13B6A4FF000029A64FFF753FD07F1D6
:10241000140207F104031046194600F03FFE03467C
:10242000002B2CD1386A00F011F90346002B20D084
:102430003B6A1B68002B08D1FFF72AFD3B6A5B68EB
:10244000184601F045F8FFF735FD3B6A03F1240219
:102450007B681046194600F02BFD386A00F0A6F89C
:1024600000F0D0FA0346002B7FF45DAFFFF704FDC8
:1024700059E7386A00F09AF800F0C4FA53E7386A6E
:1024800000F094F800F0BEFA4FF00003184607F190
:102490002807BD4680BD00BF80B584B000AFF8609E
:1024A000B9607A60FB681B6C002B0DD1FB681B6860
:1024B000002B48D1FB685B68184601F077F8FB6891
:1024C0004FF000025A603EE07B68002B1AD1FB6897
:1024D0009A68FB681B6C1046B9681A4602F048F807
:1024E000FB689A68FB681B6CD218FB689A60FB68F3
:1024F0009A68FB685B689A4225D3FB681A68FB6898
:102500009A6020E0FB68DA68FB681B6C1046B968CB
:102510001A4602F02DF8FB68DA68FB681B6CC3F101
:102520000003D218FB68DA60FB68DA68FB681B6896
:102530009A4208D2FB685A68FB681B6CC3F100031F
:10254000D218FB68DA60FB689B6B03F10102FB6841
:102550009A6307F11007BD4680BD00BF80B582B009
:1025600000AF786039607B681B68002B19D07B68EE
:10257000DA687B681B6CD2187B68DA607B68DA6883
:102580007B685B689A4203D37B681A687B68DA6071
:102590007B68DA687B681B6C386811461A4601F064
:1025A000E7FF07F10807BD4680BD00BF80B582B0D8
:1025B00000AF7860FFF76CFC14E07B685B6A002B6F
:1025C00015D07B6803F12403184600F0E3FC0346B2
:1025D000002B01D000F0C0FD7B689B6C03F1FF3243
:1025E0007B689A647B689B6C002BE6DC00E000BF94
:1025F0007B684FF0FF329A64FFF75CFCFFF748FC02
:1026000014E07B681B69002B15D07B6803F1100375
:10261000184600F0BFFC0346002B01D000F09CFDE3
:102620007B685B6C03F1FF327B685A647B685B6C90
:10263000002BE6DC00E000BF7B684FF0FF325A64FD
:10264000FFF738FC07F10807BD4680BD80B584B0B0
:1026500000AF7860FFF71CFC7B689B6B002B03D1FD
:102660004FF00103FB6002E04FF00003FB60FFF757
:1026700021FCFB68184607F11007BD4680BD00BF6E
:1026800080B584B000AF7860FFF702FC7B689A6B7E
:102690007B68DB6B9A4203D14FF00103FB6002E0E1
:1026A0004FF00003FB60FFF705FCFB68184607F1DD
:1026B0001007BD4680BD00BF80B584B000AF786014
:1026C00039607B68FB60FFF7E3FBFB685B6CB3F191
:1026D000FF3F03D1FB684FF000025A64FB689B6C1C
:1026E000B3F1FF3F03D1FB684FF000029A64FFF79C
:1026F000E1FBFB689B6B002B06D1FB6803F1240315
:102700001846396800F016FCF868FFF74FFF07F12C
:102710001007BD4680BD00BF80B58AB002AFF8602B
:10272000B9603B601346FB80FB68002B02D1FFF7CA
:10273000DBFBFEE7BB6A042B02D9FFF7D5FBFEE704
:10274000FB881846396B00F047FEB861BB69002B67
:1027500000F0B580BB691A6BFB8803F1FF334FEAC9
:102760008303D3187B617B6923F007037B617B695B
:1027700003F00703002B02D0FFF7B6FBFEE7FB8850
:102780000093B869B968BA6A7B6B00F003FD786999
:10279000F9683A68FFF7FCFA0246BB691A60BB6940
:1027A0001B6803F00703002B02D0FFF79DFBFEE739
:1027B000FB6A002B02D0FB6ABA691A60FFF768FB5C
:1027C00041F60453C2F200031B6803F1010241F613
:1027D0000453C2F200031A6041F62C43C2F2000314
:1027E0001B68002B0FD141F62C43C2F20003BA69DB
:1027F0001A6041F60453C2F200031B68012B18D182
:1028000000F004FD15E041F61453C2F200031B680A
:10281000002B0ED141F62C43C2F200031B68DA6A8A
:10282000BB6A9A4205D841F62C43C2F20003BA694A
:102830001A60BB69DA6A41F60C53C2F200031B68E6
:102840009A4206D9BB69DA6A41F60C53C2F2000318
:102850001A6041F62853C2F200031B6803F101021B
:1028600041F62853C2F200031A60BB69DA6A41F6E6
:102870001053C2F200031B689A4206D9BB69DA6A98
:1028800041F61053C2F200031A60BB69DA6A1346BC
:102890004FEA83039B184FEA830341F63042C2F2AA
:1028A00000029A18BB6903F1040310461946FFF7AA
:1028B000E1F94FF00103FB61FFF7FCFA02E04FF092
:1028C000FF33FB61FB69012B11D141F61453C2F2B6
:1028D00000031B68002B0AD041F62C43C2F2000310
:1028E0001B68DA6ABB6A9A4201D2FFF7C5FAFB6934
:1028F000184607F12007BD4680BD00BF80B584B0F3
:1029000000AF78604FF00003FB607B68002B19D0AC
:1029100000F066F841F60853C2F200031A687B68BB
:10292000D318BB6041F62C43C2F200031B6803F1CD
:1029300004031846FFF700FAB86800F007FD00F03E
:1029400061F8F860FB68002B01D1FFF795FA07F1F9
:102950001007BD4680BD00BF80B586B004AF4FF004
:10296000000300934FF0000301934FF00003029324
:102970004FF00003039343F27110C0F6000044F6D9
:102980002411C0F600014FF046024FF00003FFF79C
:10299000C3FE78607B68012B02D100F04FFE7860A7
:1029A0007B68012B12D1FFF79FFA41F61453C2F254
:1029B00000034FF001021A6041F60853C2F200030F
:1029C0004FF000021A60FFF72DFA05E07B68002B3C
:1029D00002D1FFF789FAFEE707F10807BD4680BD7F
:1029E00080B400AF41F61853C2F200031B6803F134
:1029F000010241F61853C2F200031A60BD4680BCC2
:102A0000704700BF90B583B000AF4FF000037B600C
:102A100041F61853C2F200031B68002B02D1FFF7E6
:102A200063FAFEE7FFF734FA41F61853C2F20003E7
:102A30001B6803F1FF3241F61853C2F200031A601B
:102A400041F61853C2F200031B68002B40F084804B
:102A500041F60453C2F200031B68002B7CD04FF0F8
:102A600000033B603BE041F6C443C2F20003DB6875
:102A7000DC6804F118031846FFF75EF904F104035B
:102A80001846FFF759F9E26A41F61053C2F2000303
:102A90001B689A4205D9E26A41F61053C2F200035C
:102AA0001A60E26A13464FEA83039B184FEA8303D6
:102AB00041F63042C2F200029A1804F104031046B3
:102AC0001946FFF7D7F8E26A41F62C43C2F2000339
:102AD0001B68DB6A9A4202D34FF001033B6041F668
:102AE000C443C2F200031B68002BBCD141F61C5347
:102AF000C2F200031B68002B18D00DE000F048F86C
:102B000041F61C53C2F200031B6803F1FF3241F689
:102B10001C53C2F200031A6041F61C53C2F20003B8
:102B20001B68002BEAD14FF001033B603B68012B8F
:102B300006D041F62053C2F200031B68012B0BD1D3
:102B40004FF001037B6041F62053C2F200034FF0C7
:102B500000021A60FFF790F9FFF7ACF97B6818469E
:102B600007F10C07BD4690BD80B582B000AFFFF7FE
:102B70008FF941F60853C2F200031B687B60FFF730
:102B800099F97B68184607F10807BD4680BD00BF6C
:102B900080B584B000AF41F61853C2F200031B6841
:102BA000002B40F0CA8041F60853C2F200031B68B4
:102BB00003F1010241F60853C2F200031A6041F624
:102BC0000853C2F200031B68002B4BD141F6BC43F3
:102BD000C2F200031B681B68002B02D0FFF784F9C8
:102BE000FEE741F6BC43C2F200031B68FB6041F6FE
:102BF000C043C2F200031A6841F6BC43C2F20003AC
:102C00001A6041F6C043C2F20003FA681A6041F646
:102C10002453C2F200031B6803F1010241F624535E
:102C2000C2F200031A6041F6BC43C2F200031B6803
:102C30001B68002B07D140F21803C2F200034FF0CB
:102C4000FF321A600EE041F6BC43C2F200031B687B
:102C5000DB68DB68BB60BB685A6840F21803C2F2ED
:102C600000031A6041F60853C2F200031A6840F2EA
:102C70001803C2F200031B689A426AD341F6BC43B0
:102C8000C2F200031B681B68002B07D140F2180337
:102C9000C2F200034FF0FF321A605AE041F6BC4323
:102CA000C2F200031B68DB68DB68BB60BB685B6863
:102CB0007B6041F60853C2F200031A687B689A42AF
:102CC00006D240F21803C2F200037A681A6040E0AC
:102CD000BB6803F104031846FFF72EF8BB689B6A34
:102CE000002B05D0BB6803F118031846FFF724F842
:102CF000BB68DA6A41F61053C2F200031B689A42BD
:102D000006D9BB68DA6A41F61053C2F200031A60B2
:102D1000BB68DA6A13464FEA83039B184FEA8303C2
:102D200041F63042C2F200029A18BB6803F1040374
:102D300010461946FEF79EFFA0E741F61C53C2F26B
:102D400000031B6803F1010241F61C53C2F20003A9
:102D50001A6007F11007BD4680BD00BF80B582B084
:102D600000AF41F61853C2F200031B68002B07D0D6
:102D700041F62053C2F200034FF001021A6093E0C3
:102D800041F62C43C2F200031B681A6841F62C433B
:102D9000C2F200031B681B6B9A420FD841F62C430A
:102DA000C2F200031A6841F62C43C2F200031B680A
:102DB00003F134031046194601F03CFB41F62C4365
:102DC000C2F200031B681B6B184644F62021C0F6B4
:102DD00000014FF0140201F06FFB0346002B26D0D8
:102DE00041F62C43C2F200031A6841F62C43C2F2AA
:102DF00000031B6803F134031046194601F01AFB67
:102E000015E041F61053C2F200031B68002B02D1FB
:102E1000FFF76AF8FEE741F61053C2F200031B68A1
:102E200003F1FF3241F61053C2F200031A6041F67B
:102E30001053C2F20003196841F63042C2F2000298
:102E40000B464FEA83035B184FEA8303D3181B68D2
:102E5000002BD6D041F61053C2F200031A68134675
:102E60004FEA83039B184FEA830341F63042C2F2D4
:102E700000029B187B607B685B685A687B685A60BD
:102E80007B685A687B6803F108039A4204D17B6827
:102E90005B685A687B685A607B685B68DA6841F6F1
:102EA0002C43C2F200031A6007F10807BD4680BD3B
:102EB00080B584B000AF786039607B68002B02D1A8
:102EC000FFF712F8FEE741F62C43C2F200031B683D
:102ED00003F1180378681946FEF7F4FE41F62C4317
:102EE000C2F200031B6803F104031846FEF724FF37
:102EF0003B68B3F1FF3F0ED141F62C43C2F2000311
:102F00001B6803F1040341F6F040C2F200001946C9
:102F1000FEF7B0FE0AE041F60853C2F200031A6859
:102F20003B68D318FB60F86800F010FA07F110074F
:102F3000BD4680BD80B584B000AF786039607B68E5
:102F4000002B02D1FEF7D0FFFEE741F62C43C2F280
:102F500000031B6803F1180378681946FEF78AFE20
:102F600041F62C43C2F200031B6803F10403184628
:102F7000FEF7E2FE41F60853C2F200031A683B680E
:102F8000D318FB60F86800F0E1F907F11007BD46BF
:102F900080BD00BF80B584B000AF78607B68DB681F
:102FA000DB68BB60BB68002B02D1FEF79DFFFEE72C
:102FB000BB6803F118031846FEF7BEFE41F618532E
:102FC000C2F200031B68002B2AD1BB6803F1040383
:102FD0001846FEF7B1FEBB68DA6A41F61053C2F23A
:102FE00000031B689A4206D9BB68DA6A41F610539F
:102FF000C2F200031A60BB68DA6A13464FEA830321
:103000009B184FEA830341F63042C2F200029A183D
:10301000BB6803F1040310461946FEF72BFE09E0D6
:10302000BB6803F1180341F6C440C2F20000194620
:10303000FEF720FEBB68DA6A41F62C43C2F20003B9
:103040001B68DB6A9A4203D34FF00103FB6002E086
:103050004FF00003FB60FB68184607F11007BD4600
:1030600080BD00BF80B582B000AF78607B68002B68
:1030700002D1FEF739FFFEE741F62453C2F2000306
:103080001A687B681A6041F60853C2F200031A6896
:103090007B685A6007F10807BD4680BD80B584B0E3
:1030A00000AF786039607B68002B02D1FEF71CFF0F
:1030B000FEE73B68002B02D1FEF716FFFEE7FEF7A6
:1030C000E7FE3B681B68B3F1FF3F03D14FF00003FD
:1030D000FB6038E07B681A6841F62453C2F20003B3
:1030E0001B689A420CD07B685A6841F60853C2F2BA
:1030F00000031B689A4203D84FF00103FB6022E0F3
:1031000041F60853C2F200031A687B685B68D21A62
:103110003B681B689A4213D23B681A687B685968FF
:1031200041F60853C2F200031B68CB1AD2183B6861
:103130001A607868FFF796FF4FF00003FB6002E02B
:103140004FF00103FB60FEF7B5FEFB68184607F180
:103150001007BD4680BD00BF80B400AF41F62053CC
:10316000C2F200034FF001021A60BD4680BC7047F6
:1031700080B582B000AF786000F09AF841F6304335
:10318000C2F200031B68012B01D9FEF775FE01F0A6
:1031900057F9F1E780B584B000AFF860B9607A60A4
:1031A0003B60FB6803F134031846B9684FF00A022C
:1031B00001F022FBFB684FF0000283F83D207B68A2
:1031C000042B02D94FF004037B60FB687A68DA6253
:1031D000FB687A681A64FB6803F104031846FEF77B
:1031E0003BFDFB6803F118031846FEF735FDFB684D
:1031F000FA681A617B68C3F10502FB689A61FB6893
:10320000FA685A6207F11007BD4680BD80B582B0EA
:1032100000AF4FF000037B6012E07A6813464FEA7C
:1032200083039B184FEA830341F63042C2F2000247
:103230009B181846FEF7F0FC7B6803F101037B60E6
:103240007B68042BE9D941F69440C2F20000FEF7F6
:10325000E3FC41F6A840C2F20000FEF7DDFC41F6B7
:10326000C440C2F20000FEF7D7FC41F6D840C2F2DB
:103270000000FEF7D1FC41F6F040C2F20000FEF77C
:10328000CBFC41F6BC43C2F2000341F69442C2F2C9
:1032900000021A6041F6C043C2F2000341F6A842A0
:1032A000C2F200021A6007F10807BD4680BD00BFE8
:1032B00080B582B000AF3DE0FFF792FB41F6D84306
:1032C000C2F200031B68002B14BF00230123DBB2F2
:1032D0007B60FFF797FB7B68002B2BD1FEF7D8FDB7
:1032E00041F6D843C2F20003DB68DB683B603B6811
:1032F00003F104031846FEF71FFD41F60453C2F222
:1033000000031B6803F1FF3241F60453C2F20003CD
:103310001A6041F6EC43C2F200031B6803F1FF326E
:1033200041F6EC43C2F200031A60FEF7C3FD3868B1
:1033300000F08AF841F6EC43C2F200031B68002B50
:10334000BAD107F10807BD4680BD00BF80B582B085
:1033500000AF786041F62C43C2F200031B687A6824
:103360005A6041F60853C2F200031B687A689A4219
:1033700010D241F6C043C2F200031A6841F62C4352
:10338000C2F200031B6803F1040310461946FEF75E
:1033900099FC1DE041F6BC43C2F200031A6841F6F5
:1033A0002C43C2F200031B6803F1040310461946C4
:1033B000FEF788FC40F21803C2F200031B687A682B
:1033C0009A4205D240F21803C2F200037A681A60EA
:1033D00007F10807BD4680BD80B584B000AF034645
:1033E0003960FB804FF04400FEF794FBF860FB6807
:1033F000002B23D03B68002B07D1FB884FEA8303C7
:103400001846FEF787FB034600E03B68FA68136343
:10341000FB681B6B002B06D1F868FEF7DFFB4FF053
:103420000003FB600AE0FB681A6BFB884FEA83032A
:1034300010464FF0A5011A4601F048F9FB681846FE
:1034400007F11007BD4680BD80B582B000AF78603F
:103450007B681B6B1846FEF7C1FB7868FEF7BEFB66
:1034600007F10807BD4680BD80B483B000AF41F6C8
:103470002C43C2F200031B687B607B68184607F18F
:103480000C07BD4680BC704780B483B000AF41F6E6
:103490001453C2F200031B68002B03D14FF000034A
:1034A0007B600DE041F61853C2F200031B68002B4D
:1034B00003D14FF001037B6002E04FF002037B6019
:1034C0007B68184607F10C07BD4680BC704700BFFB
:1034D00080B584B000AF78607B68FB607B68002BB0
:1034E0005FD0FB68DA6A41F62C43C2F200031B6826
:1034F000DB6A9A4255D241F62C43C2F200031B68A4
:10350000DB6AC3F10502FB689A61FB685969FB68D5
:10351000DA6A13464FEA83039B184FEA830341F6A6
:103520003042C2F200029B18994232D1FB6803F18B
:1035300004031846FEF700FC41F62C43C2F20003D8
:103540001B68DA6AFB68DA62FB68DA6A41F61053D4
:10355000C2F200031B689A4206D9FB68DA6A41F698
:103560001053C2F200031A60FB68DA6A13464FEA8E
:1035700083039B184FEA830341F63042C2F20002F4
:103580009A18FB6803F1040310461946FEF772FB14
:1035900007E041F62C43C2F200031B68DA6AFB68BD
:1035A000DA6207F11007BD4680BD00BF80B584B068
:1035B00000AF78607B68FB607B68002B39D0FB68CC
:1035C000DA6AFB681B6C9A4233D0FB6803F1040390
:1035D0001846FEF7B1FBFB681A6CFB68DA62FB6801
:1035E000DB6AC3F10502FB689A61FB68DA6A41F69F
:1035F0001053C2F200031B689A4206D9FB68DA6ACC
:1036000041F61053C2F200031A60FB68DA6A1346EF
:103610004FEA83039B184FEA830341F63042C2F21C
:1036200000029A18FB6803F1040310461946FEF7DE
:1036300021FB07F11007BD4680BD00BF80B586B0F5
:1036400004AF4FF000037B6000F0A4FA41F65C5336
:10365000C2F200031B68002B1AD04FF00303009343
:103660004FF0000301934FF0000302934FF000036B
:10367000039343F2D170C0F6000044F62C11C0F65B
:1036800000014FF046024FF00003FFF745F8786065
:103690007B68002B02D1FEF727FCFEE77B6818460B
:1036A00007F10807BD4680BD80B588B000AFF8605F
:1036B000B9607A603B604FF00003FB6141F65C53F8
:1036C000C2F200031B68002B3DD0BB683B617B68E6
:1036D0007B61FB68BB613B68002B25D1FFF7D4FE03
:1036E0000346012B0FD141F65C53C2F200031A6866
:1036F00007F1100310461946BA6A4FF00003FEF7AF
:10370000E9FCF8611FE041F65C53C2F200031A685D
:1037100007F11003104619464FF000024FF0000366
:10372000FEF7D8FCF8610EE041F65C53C2F20003EC
:103730001A6807F11003104619463A684FF0000363
:10374000FEF770FDF861FB69184607F12007BD46DA
:1037500080BD00BF80B586B002AF7860396041F6A9
:103760005453C2F200031B68DB68DB68FB60FB6834
:1037700003F104031846FEF7DFFAFB68DB69012B4F
:103780001ED1FB689A697B68D318F86819463A68B5
:103790007B6800F0BFF80346012B11D14FF0000306
:1037A0000093F8684FF000017A684FF00003FFF7CC
:1037B0007BFFB860BB68002B02D1FEF795FBFEE7EC
:1037C000FB685B6AF868984707F11007BD4680BD43
:1037D00080B584B000AF786007F10803184600F0A8
:1037E00043F8F860BB68F868194600F003F800F089
:1037F000DBF8F1E780B584B000AF78603960FFF79F
:10380000EFF807F10803184600F058F8F860BB68B5
:10381000002B21D13B68002B0AD17A68FB689A42C1
:1038200006D8FFF7EFF87868F968FFF793FF17E01D
:1038300041F65C53C2F200031A687968FB68CB1A40
:1038400010461946FEF738FFFFF7DCF80346002B59
:1038500005D1FEF711FB02E0FFF7D4F800E000BF4E
:1038600007F11007BD4680BD80B485B000AF786019
:1038700041F65453C2F200031B681B68002B14BFAF
:1038800000230123DBB21A467B681A607B681B6841
:10389000002B08D141F65453C2F200031B68DB68C9
:1038A0001B68FB6002E04FF00003FB60FB681846FA
:1038B00007F11407BD4680BC704700BF80B584B0D7
:1038C00000AF7860FFF750F9F86041F66053C2F23C
:1038D00000031B68FA689A420CD241F66053C2F2A8
:1038E00000031B68184600F0E1F87B684FF0010206
:1038F0001A6003E07B684FF000021A6041F66053E3
:10390000C2F20003FA681A60FB68184607F1100754
:10391000BD4680BD80B586B000AFF860B9607A6002
:103920003B604FF000037B61FB68BA685A60FB683C
:10393000FA681A61BA687B689A4217D87A683B6855
:10394000D21AFB689B699A4203D34FF001037B6153
:1039500024E041F65853C2F200031A68FB6803F1F1
:10396000040310461946FEF7ADF917E07A683B6884
:103970009A4207D2BA683B689A4203D34FF00103D8
:103980007B610BE041F65453C2F200031A68FB68F6
:1039900003F1040310461946FEF794F97B691846B3
:1039A00007F11807BD4680BD80B58AB002AF66E05A
:1039B0003B69FB61FB695B69002B05D0FB6903F187
:1039C00004031846FEF7B8F907F104031846FFF799
:1039D00075FFB861BB68032B4ED801A252F823F0E3
:1039E000F1390008793A0008473A0008713A0008AE
:1039F000FA68FB699B69D218FB68F8691146BA69D5
:103A0000FFF788FF0346012B38D1FB695B6AF86931
:103A10009847FB69DB69012B30D1FA68FB699B6928
:103A2000D3184FF000020092F8694FF000011A46D7
:103A30004FF00003FFF738FE78617B69002B1DD142
:103A4000FEF752FAFEE7FA68FB699A61FB699B6927
:103A5000002B02D1FEF748FAFEE7FB699A69BB69C1
:103A6000D318F8691946BA69BB69FFF753FF06E036
:103A7000F869FEF7B3F802E000BF00E000BF41F6CE
:103A80005C53C2F200031A6807F108031046194696
:103A90004FF000024FF00003FEF722FC0346002B1C
:103AA00086D107F12007BD4680BD00BF80B58AB032
:103AB00002AF78604BE041F65453C2F200031B683A
:103AC000DB681B68FB6141F65453C2F200031B68BC
:103AD000DB68DB68BB61BB6903F104031846FEF7D2
:103AE0002BF9BB695B6AB8699847BB69DB69012B35
:103AF0002DD1BB699A69FB69D3187B617A69FB692F
:103B00009A4212D9BB697A695A60BB69BA691A616B
:103B100041F65453C2F200031A68BB6903F104036F
:103B200010461946FEF7CEF811E04FF0000300935F
:103B3000B8694FF00001FA694FF00003FFF7B4FDD8
:103B400038613B69002B02D1FEF7CEF9FEE741F662
:103B50005453C2F200031B681B68002BABD141F623
:103B60005453C2F200031B68FB6041F65853C2F283
:103B700000031A6841F65453C2F200031A6041F67A
:103B80005853C2F20003FA681A6007F12007BD46D5
:103B900080BD00BF80B500AFFEF77AF941F65C53F7
:103BA000C2F200031B68002B2BD141F62C50C2F24D
:103BB0000000FEF731F841F64050C2F20000FEF777
:103BC0002BF841F65453C2F2000341F62C52C2F2D4
:103BD00000021A6041F65853C2F2000341F6405207
:103BE000C2F200021A604FF005004FF00C014FF0D6
:103BF0000002FEF72BFA024641F65C53C2F20003C4
:103C00001A60FEF757F980BD80B500AF4FF4A050A1
:103C1000C4F200004FF00101FDF77AFD41F6685350
:103C2000C2F200031B68984780BD00BF002100F06E
:103C300004B80C4B5B58435004310B480B4B4218F3
:103C40009A42FFF4F6AF0A4A00F003B8002342F8A4
:103C5000043B084B9A42FFF4F9AF00F00FF800F074
:103C6000A7FB7047D14F0008000000202000002073
:103C700020000020781D0020FFF7FEBF80B500AFB8
:103C80004FF48053C4F202034FF48052C4F2020294
:103C9000126842F001021A604FF48052C4F202022C
:103CA0004FF48053C4F2020359684FF00003CFF67B
:103CB000FF030B4053604FF48053C4F202034FF4F0
:103CC0008052C4F20202126822F0847222F480321E
:103CD0001A604FF48053C4F202034FF48052C4F2CE
:103CE0000202126822F480221A604FF48053C4F258
:103CF00002034FF48052C4F20202526822F4FE0220
:103D00005A604FF48053C4F202034FF41F029A60CA
:103D10004FF48053C4F202034FF00002DA6200F065
:103D200009F84FF46D43CEF200034FF000629A6041
:103D300080BD00BF80B500AF00F002F880BD00BFBD
:103D400080B483B000AF4FF000037B604FF00003FE
:103D50003B604FF48053C4F202034FF48052C4F22C
:103D60000202126842F480321A604FF48053C4F2A7
:103D700002031B6803F400333B607B6803F101031B
:103D80007B603B68002B03D17B68B3F5A06FECD15F
:103D90004FF48053C4F202031B6803F40033002B7A
:103DA00003D04FF001033B6002E04FF000033B60A3
:103DB0003B68012B6DD14FF48053C4F202034FF4E2
:103DC0008052C4F2020252685A604FF48053C4F227
:103DD00002034FF48052C4F2020252685A604FF458
:103DE0008053C4F202034FF48052C4F202025268BC
:103DF0005A604FF48053C4F202034FF48052C4F26D
:103E00000202526822F47C125A604FF48053C4F2CA
:103E100002034FF48052C4F20202526842F4981234
:103E20005A604FF48053C4F202034FF48052C4F23C
:103E30000202126842F080721A6000BF4FF4805391
:103E4000C4F202031B6803F00073002BF6D04FF49A
:103E50008053C4F202034FF48052C4F2020252684B
:103E600022F003025A604FF48053C4F202034FF46D
:103E70008052C4F20202526842F002025A6000BF4D
:103E80004FF48053C4F202035B6803F00C03082B69
:103E9000F6D107F10C07BD4680BC704780B500AF76
:103EA000FCF7F6FF4FF48030FDF746F800BF4FF007
:103EB0003100FDF7DBFA0346002BF8D04FF000008D
:103EC000FDF7E2F84FF00000FDF71EF94FF000009B
:103ED000FDF7FAF84FF480304FF48011FDF770F8D9
:103EE0004FF00100FDF790F800BF4FF03900FDF7EB
:103EF000BDFA0346002BF8D04FF00200FDF794F80E
:103F000000BFFDF7B1F80346082BFAD180BD00BF12
:103F100080B582B000AF4FF010004FF00101FDF707
:103F200051FA4FF44073BB804FF00303BB714FF065
:103F30001003FB7107F104034FF48050C4F2010039
:103F40001946FCF765FE07F10807BD4680BD00BFB6
:103F500080B582B000AF4FF004004FF00101FDF7D3
:103F600031FA4FF00103BB804FF00403FB7107F1FE
:103F700004034FF40060C4F201001946FCF748FE48
:103F80004FF000004FF00001FCF71AFF07F108079F
:103F9000BD4680BD80B582B000AF4FF004004FF049
:103FA0000101FDF70FFA4FF40073BB804FF01803C7
:103FB000FB714FF00303BB7107F104034FF4006082
:103FC000C4F201001946FCF723FE4FF48063BB8066
:103FD0004FF00403FB7107F104034FF40060C4F2D7
:103FE00001001946FCF714FE07F10807BD4680BD25
:103FF00080B584B000AF4FF480404FF00101FDF771
:10400000E1F94FF4E1333B604FF00003BB804FF028
:104010000003FB804FF000033B814FF00003BB81A6
:104020004FF00C037B813B464FF46050C4F201001B
:104030001946FDF77FFB4FF46050C4F201004FF0CA
:104040000101FDF74DFC4FF46050C4F2010044F64D
:104050003411C0F600014FF00102FCF733FA07F10A
:104060001007BD4680BD00BF80B582B000AF4FF0E5
:1040700001033B604FF000033B714FF008037B717D
:104080004FF00103BB713B461846FCF715FD07F1E5
:104090000807BD4680BD00BF80B582B000AF4FF4B9
:1040A0004070FCF781FC4FF025033B714FF00F038C
:1040B0007B714FF00F03BB714FF00103FB7107F1F0
:1040C00004031846FCF784FC4FF46050C4F201006E
:1040D00040F227714FF00002FDF722FC4FF46050D0
:1040E000C4F2010040F225514FF00102FDF718FC27
:1040F00007F10807BD4680BD80B582B000AF4FF420
:104100004070FCF751FC4FF006033B714FF00F037A
:104110007B714FF00F03BB714FF00103FB7107F18F
:1041200004031846FCF754FC07F10807BD4680BDA0
:1041300080B500AF4FF00100FCF75AFD4FF460501E
:10414000C4F2010044F66811C0F600014FF001020C
:10415000FCF7B8F94FF48053C4F201034FF48052D6
:10416000C4F20102D26842F40072DA604FF00A0031
:10417000FCF7D4FA4FF48053C4F201034FF4805299
:10418000C4F20102D26882F40072DA6080BD00BF1E
:1041900080B500AFFFF782FEFFF7BAFEFFF7D8FE4B
:1041A000FFF762FFFFF7F6FEFFF722FFFFF7A4FF1E
:1041B000FFF772FFFCF77AFA80BD00BF80B582B0CE
:1041C00000AF78604FF48053C4F201034FF4805283
:1041D000C4F20102D26882F48072DA604FF4FA709D
:1041E000FEF78CFBEEE700BF80B582B000AF4FF466
:1041F0006050C4F2010040F22551FDF729FC03464E
:10420000002B0ED04FF46050C4F20100FDF7EEFB1E
:104210000346FB8007F1060318464FF0010100F04A
:104220001BF907F10807BD4680BD00BF80B584B00B
:1042300000AF78604FF46050C4F2010044F698116A
:10424000C0F600014FF00002FCF73CF94FF480503B
:10425000C4F201004FF08001FBF7BAFF4FF4605049
:10426000C4F2010044F69811C0F600014FF00002BC
:10427000FCF728F907F10C0318464FF48051C4F2FB
:1042800001014FF08002FBF7C5FF4FF46050C4F20C
:1042900001004FF00801FCF7FDF84FF46050C4F244
:1042A00001004FF00801FCF7F5F8FB684FF460508F
:1042B000C4F201001946FCF727F94FF48053C4F209
:1042C00001034FF48052C4F20102D26842F400723A
:1042D000DA604FF00A00FCF721FA4FF48053C4F281
:1042E00001034FF48052C4F20102D26882F40072DA
:1042F000DA604FF46050C4F2010044F6B411C0F625
:1043000000014FF00002FCF7DDF8FCF7DBFA034692
:104310001846FCF7EDFA03464FF46050C4F2010072
:104320001946FCF7F1F84FF46050C4F2010044F66E
:10433000C011C0F600014FF00002FCF7C3F8FCF713
:10434000C1FA03461846FCF7E7FA03464FF46050FB
:10435000C4F201001946FCF7D7F84FF46050C4F2DC
:10436000010044F6C011C0F600014FF00002FCF756
:10437000A9F8FCF7A7FA03461846FCF7EDFA03463E
:104380004FF46050C4F201001946FCF7BDF84FF439
:104390006050C4F2010044F6C411C0F600014FF0B1
:1043A0000102FCF78FF84FF47A70FEF7A7FA4DE799
:1043B00080B584B004AFFFF7EBFEFCF755FA4FF081
:1043C000020300934FF0000301934FF000030293A8
:1043D0004FF00003039344F2BD10C0F6000044F612
:1043E000C811C0F600014FF046024FF00003FEF77F
:1043F00093F94FF0020300934FF0000301934FF045
:10440000000302934FF00003039344F22D20C0F603
:10441000000044F6CC11C0F600014FF046024FF008
:104420000003FEF779F9FEF797FAFEE780B400AFD4
:10443000FEE700BF80B483B000AF78603960FEE76C
:1044400080B582B000AFFDF7D7FB03467B607B6889
:1044500007F10807BD4680BD80B582B000AF786027
:10446000396018E07B681B787A6802F101027A6093
:104470004FF46050C4F201001946FDF7A3FA00BFE3
:104480004FF46050C4F201004FF04001FDF7C0FA54
:104490000346002BF4D03B68002B0CBF0023012304
:1044A000DBB23A6802F1FF323A60002BDAD107F151
:1044B0000807BD4680BD00BF032AF0B431D941EAE8
:1044C00000039C072ED106680F68151F031D0C1DE5
:1044D000BE42C5F3800C24D1032D2A461FD9BCF15E
:1044E000000F08D01E68256821461846043404339E
:1044F000AE4211D015E0214618461C680B68051D18
:104500000E1D9C420DD1314628462E680D68043A96
:10451000031D0C1DAE4204D1043A032AEBD82146F8
:1045200018461AB303780C78A3420AD1551E00220C
:10453000EB0714D510F8013F11F8014F0122A342F7
:104540000DD0181B10E010F8013F11F8014FA342E5
:10455000F7D110F8013F11F8014FA342F1D1AA425F
:1045600002F10202EFD10020F0BC70471046FBE7D9
:104570000F2A2DE9F00340F2A18041EA00039B07D6
:1045800040F09E800C68A2F1100504604B68AC46B8
:1045900043608C68BCF10F0F8460CC68C5F30015D4
:1045A000C46000F1100301F110042BD975B1256826
:1045B000ACF1100C1D6065685D60A5689D60E568E4
:1045C0001034DD601033BCF10F0F1BD9276804F1E4
:1045D00010061F60676803F110055F60A768ACF103
:1045E000200C9F60E768DF6024691C61776806F132
:1045F00010046F60B7682033AF60F668BCF10F0F2E
:10460000EE60E3D8A2F1100828F00F0302F00F04C7
:1046100003F1100C032C00EB0C0301EB0C0851D937
:10462000211F4FEA9109444608EB890C54F8046BAA
:10463000C8EB0C010CF1040C1D46644545F8046BF5
:10464000C1F3800112D029B154F8041B644545F828
:10465000041B0BD0274657F8041B2E4646F8041BB4
:1046600064686C603C1D351D6445F3D109F1010C93
:104670004FEA8C0902F0030208EB09014B44D2B166
:104680000D789A18DC4303F8015B1419934204F087
:10469000010410D02CB111F8014F03F8014B9342E3
:1046A00009D04D781C4604F8015B8D7802315D70AD
:1046B000631C9342F5D1BDE8F00370470346DEE783
:1046C0000346DDE741462246D9E700BFF0B4840740
:1046D000034600F08D80541E002A00F08780E50715
:1046E000CEB211D41A4602F8016B13461546920752
:1046F00010D0621E002C79D003F8016B14469A0783
:104700001D4607D0013CEDE7034603F8016B9A070D
:104710001D46F7D1032C52D9CEB246EA06270F2CFC
:1047200047EA07432DD9A4F1100217460F2FC2F311
:1047300000162B606B60AB60EB6005F1100216D9C0
:104740003EB1103F136053609360D36010320F2F5F
:104750000DD9203F02F11006136053609360D360BF
:10476000136153619361D36120320F2FF1D8A4F10B
:10477000100222F00F0204F00F041032032C154433
:104780001DD9271F3E462A46032E42F8043BC7F395
:1047900080070DD927B1043E032E42F8043B07D908
:1047A000174647F8043B083E53603A1D032EF7D8DE
:1047B000231F23F00302131D04F00304ED18ACB112
:1047C000C9B2EA432C1905F8011BA318A54203F04E
:1047D00001020BD01AB105F8011BA54206D02B46E9
:1047E00003F8011B69705D1CA542F8D1F0BC70474D
:1047F000054614468EE700BF41EA00039B07F0B46C
:1048000074D1032A72D90C4654F8045B161FA5F123
:10481000013727EA050717F0803F0346C6F3800CEF
:1048200031D10346032E324643F8045B2AD9BCF14A
:10483000000F0AD0214654F8045BA5F1013626EAA0
:10484000050616F0803F18D01DE0264656F8045B9A
:104850002146A5F1013727EA050717F0803F12D15D
:1048600043F8045B65683146A5F1013626EA050682
:10487000043A0C1D16F0803F05D1043A032A43F890
:10488000045BE2D821467AB30D78013A03F8015B64
:104890009DB112F0010F1C462AD1234622B311F814
:1048A000015F013A03F8015B3DB111F8015F013A84
:1048B00065705C1C2346002DEFD1AAB100219C1825
:1048C000DA4303F8011BA218A34202F001020BD045
:1048D0001AB103F8011BA34206D01A4602F8011BC5
:1048E0005970531CA342F8D1F0BC70470346CAE785
:1048F00011F8015F1C4604F8015B013A2346002DC4
:10490000CBD1DAE73031323334353637383900003D
:1049100030313233343536373839414243444546F5
:104920000000000049444C4500000000546D722016
:10493000537663000A3D3D3D3D3D20554152543183
:1049400020D0B8D0BDD0B8D186D0B8D0B0D0BBD0F0
:10495000B8D0B7D0B8D180D0BED0B2D0B0D0BD2002
:104960003D3D3D3D3D000000D0A2D18BD0BDD18664
:1049700000000000D0A1D186D183D0BAD0BE2C20B7
:10498000D0BED182D0BBD0B0D0B4D18C20D0BCD0DE
:10499000B5D0BDD18F2E2E00D0A2D0B5D0BCD0BF07
:1049A000D0B5D180D0B0D182D183D180D0B03A20DF
:1049B0002020000020557074696D653A20000000C9
:1049C0003A000000000000004C45440044533138D8
:1049D00032310000537563636573732120476F6F35
:1049E000644C75636B2100004E6F206563686F2017
:1049F00066726F6D20646576696365210000000052
:104A000050696E204C4F57206572726F7221000002
:104A1000435243206E6F74206D61746368210000FF
:104A2000A5A5A5A5A5A5A5A5A5A5A5A5A5A5A5A536
:044A3000A5A5A5A5EE
:104FD100000000000102030401020304060708099E
:104FE10002040608AAAAAAAAFFFFFFFF00366E0163
:0400000508003C2D86
:00000001FF
